{
  "contractName": "CoffeeShopRole",
  "abi": [
    {
      "inputs": [],
      "payable": false,
      "stateMutability": "nonpayable",
      "type": "constructor"
    },
    {
      "anonymous": false,
      "inputs": [
        {
          "indexed": true,
          "name": "account",
          "type": "address"
        }
      ],
      "name": "CoffeeShopAdded",
      "type": "event"
    },
    {
      "anonymous": false,
      "inputs": [
        {
          "indexed": true,
          "name": "account",
          "type": "address"
        }
      ],
      "name": "CoffeeShopRemoved",
      "type": "event"
    },
    {
      "constant": true,
      "inputs": [
        {
          "name": "account",
          "type": "address"
        }
      ],
      "name": "isCoffeeShop",
      "outputs": [
        {
          "name": "",
          "type": "bool"
        }
      ],
      "payable": false,
      "stateMutability": "view",
      "type": "function"
    },
    {
      "constant": false,
      "inputs": [
        {
          "name": "account",
          "type": "address"
        }
      ],
      "name": "addCoffeeShop",
      "outputs": [],
      "payable": false,
      "stateMutability": "nonpayable",
      "type": "function"
    },
    {
      "constant": false,
      "inputs": [],
      "name": "renounceCoffeeShop",
      "outputs": [],
      "payable": false,
      "stateMutability": "nonpayable",
      "type": "function"
    }
  ],
  "bytecode": "0x608060405234801561001057600080fd5b506100293361002e640100000000026401000000009004565b6101e8565b61004f816000610095640100000000026102a1179091906401000000009004565b8073ffffffffffffffffffffffffffffffffffffffff167fb4752ac1373eda17feb0a1549c483989bf49be9de44b667d78052c8d4b849f1860405160405180910390a250565b600073ffffffffffffffffffffffffffffffffffffffff168173ffffffffffffffffffffffffffffffffffffffff16141515156100d157600080fd5b6100ea8282610154640100000000026401000000009004565b1515156100f657600080fd5b60018260000160008373ffffffffffffffffffffffffffffffffffffffff1673ffffffffffffffffffffffffffffffffffffffff16815260200190815260200160002060006101000a81548160ff0219169083151502179055505050565b60008073ffffffffffffffffffffffffffffffffffffffff168273ffffffffffffffffffffffffffffffffffffffff161415151561019157600080fd5b8260000160008373ffffffffffffffffffffffffffffffffffffffff1673ffffffffffffffffffffffffffffffffffffffff16815260200190815260200160002060009054906101000a900460ff16905092915050565b61042c806101f76000396000f300608060405260043610610057576000357c0100000000000000000000000000000000000000000000000000000000900463ffffffff1680631f0785631461005c578063548e5ed8146100b757806377f8b614146100fa575b600080fd5b34801561006857600080fd5b5061009d600480360381019080803573ffffffffffffffffffffffffffffffffffffffff169060200190929190505050610111565b604051808215151515815260200191505060405180910390f35b3480156100c357600080fd5b506100f8600480360381019080803573ffffffffffffffffffffffffffffffffffffffff16906020019092919050505061012e565b005b34801561010657600080fd5b5061010f61014e565b005b600061012782600061015990919063ffffffff16565b9050919050565b61013733610111565b151561014257600080fd5b61014b816101ed565b50565b61015733610247565b565b60008073ffffffffffffffffffffffffffffffffffffffff168273ffffffffffffffffffffffffffffffffffffffff161415151561019657600080fd5b8260000160008373ffffffffffffffffffffffffffffffffffffffff1673ffffffffffffffffffffffffffffffffffffffff16815260200190815260200160002060009054906101000a900460ff16905092915050565b6102018160006102a190919063ffffffff16565b8073ffffffffffffffffffffffffffffffffffffffff167fb4752ac1373eda17feb0a1549c483989bf49be9de44b667d78052c8d4b849f1860405160405180910390a250565b61025b81600061035190919063ffffffff16565b8073ffffffffffffffffffffffffffffffffffffffff167f613d771c2bf5680c0ed2ef272f33de96e6288e351ebfec8de5c653f89ae9408e60405160405180910390a250565b600073ffffffffffffffffffffffffffffffffffffffff168173ffffffffffffffffffffffffffffffffffffffff16141515156102dd57600080fd5b6102e78282610159565b1515156102f357600080fd5b60018260000160008373ffffffffffffffffffffffffffffffffffffffff1673ffffffffffffffffffffffffffffffffffffffff16815260200190815260200160002060006101000a81548160ff0219169083151502179055505050565b600073ffffffffffffffffffffffffffffffffffffffff168173ffffffffffffffffffffffffffffffffffffffff161415151561038d57600080fd5b6103978282610159565b15156103a257600080fd5b60008260000160008373ffffffffffffffffffffffffffffffffffffffff1673ffffffffffffffffffffffffffffffffffffffff16815260200190815260200160002060006101000a81548160ff02191690831515021790555050505600a165627a7a72305820c30d64ae57e91b3f93cdf682f79cd60c3bc5a8b2b37dae1ebf6ea87f1ba3a2050029",
  "source": "pragma solidity ^0.4.24;\r\n\r\n// Import the library 'Roles'\r\nimport \"./Roles.sol\";\r\n\r\n// Define a contract 'CoffeeShopRole' to manage this role - add, remove, check\r\ncontract CoffeeShopRole {\r\n  using Roles for Roles.Role;\r\n\r\n  // Define 2 events, one for Adding, and other for Removing\r\n  event CoffeeShopAdded(address indexed account);\r\n  event CoffeeShopRemoved(address indexed account);\r\n\r\n  // Define a struct 'coffeeShops' by inheriting from 'Roles' library, struct Role\r\n  Roles.Role private coffeeShops;\r\n\r\n  // In the constructor make the address that deploys this contract the 1st coffeeshop\r\n  constructor() public {\r\n    _addCoffeeShop(msg.sender);\r\n  }\r\n\r\n  // Define a modifier that checks to see if msg.sender has the appropriate role\r\n  modifier onlyCoffeeShop() {\r\n    require(isCoffeeShop(msg.sender));\r\n    _;\r\n  }\r\n\r\n  // Define a function 'isCoffeeShop' to check this role\r\n  function isCoffeeShop(address account) public view returns (bool) {\r\n    return coffeeShops.has(account);\r\n  }\r\n\r\n  // Define a function 'addRoaster' that adds this role\r\n  function addCoffeeShop(address account) public onlyCoffeeShop {\r\n    _addCoffeeShop(account);\r\n  }\r\n\r\n  // Define a function 'renounceCoffeeShop' to renounce this role\r\n  function renounceCoffeeShop() public {\r\n    _removeCoffeeShop(msg.sender);\r\n  }\r\n\r\n  // Define an internal function '_addCoffeeShop' to add this role, called by 'addCoffeeShop'\r\n  function _addCoffeeShop(address account) internal {\r\n    coffeeShops.add(account);\r\n    emit CoffeeShopAdded(account);\r\n  }\r\n\r\n  // Define an internal function '_removeCoffeeShop' to remove this role, called by 'removeCoffeeShop'\r\n  function _removeCoffeeShop(address account) internal {\r\n    coffeeShops.remove(account);\r\n    emit CoffeeShopRemoved(account);\r\n  }\r\n}",
  "sourcePath": "C:\\Users\\dcblo\\Github\\blockchain_udacity\\blockchainArchitecture\\nd1309-Project-6b-Example-Template-master\\project-6\\contracts\\coffeeaccesscontrol\\CoffeeShop.sol",
  "compiler": {
    "name": "solc",
    "version": "0.4.26+commit.4563c3fc.Emscripten.clang"
  },
  "schemaVersion": "2.0.3",
  "updatedAt": "2021-05-04T08:24:19.359Z"
}