{
  "contractName": "RoasterRole",
  "abi": [
    {
      "inputs": [],
      "payable": false,
      "stateMutability": "nonpayable",
      "type": "constructor"
    },
    {
      "anonymous": false,
      "inputs": [
        {
          "indexed": true,
          "name": "account",
          "type": "address"
        }
      ],
      "name": "RoasterAdded",
      "type": "event"
    },
    {
      "anonymous": false,
      "inputs": [
        {
          "indexed": true,
          "name": "account",
          "type": "address"
        }
      ],
      "name": "RoasterRemoved",
      "type": "event"
    },
    {
      "constant": true,
      "inputs": [
        {
          "name": "account",
          "type": "address"
        }
      ],
      "name": "isRoaster",
      "outputs": [
        {
          "name": "",
          "type": "bool"
        }
      ],
      "payable": false,
      "stateMutability": "view",
      "type": "function"
    },
    {
      "constant": false,
      "inputs": [
        {
          "name": "account",
          "type": "address"
        }
      ],
      "name": "addRoaster",
      "outputs": [],
      "payable": false,
      "stateMutability": "nonpayable",
      "type": "function"
    },
    {
      "constant": false,
      "inputs": [],
      "name": "renounceRoaster",
      "outputs": [],
      "payable": false,
      "stateMutability": "nonpayable",
      "type": "function"
    }
  ],
  "bytecode": "0x608060405234801561001057600080fd5b506100293361002e640100000000026401000000009004565b6101e8565b61004f816000610095640100000000026102a1179091906401000000009004565b8073ffffffffffffffffffffffffffffffffffffffff167f94f245918d9ca15bc0b5ce0afc3e777e1da9606758ea2932638b7dca5e6582b760405160405180910390a250565b600073ffffffffffffffffffffffffffffffffffffffff168173ffffffffffffffffffffffffffffffffffffffff16141515156100d157600080fd5b6100ea8282610154640100000000026401000000009004565b1515156100f657600080fd5b60018260000160008373ffffffffffffffffffffffffffffffffffffffff1673ffffffffffffffffffffffffffffffffffffffff16815260200190815260200160002060006101000a81548160ff0219169083151502179055505050565b60008073ffffffffffffffffffffffffffffffffffffffff168273ffffffffffffffffffffffffffffffffffffffff161415151561019157600080fd5b8260000160008373ffffffffffffffffffffffffffffffffffffffff1673ffffffffffffffffffffffffffffffffffffffff16815260200190815260200160002060009054906101000a900460ff16905092915050565b61042c806101f76000396000f300608060405260043610610057576000357c0100000000000000000000000000000000000000000000000000000000900463ffffffff1680632a3c14cb1461005c578063f2c8656f1461009f578063f6605b07146100b6575b600080fd5b34801561006857600080fd5b5061009d600480360381019080803573ffffffffffffffffffffffffffffffffffffffff169060200190929190505050610111565b005b3480156100ab57600080fd5b506100b4610131565b005b3480156100c257600080fd5b506100f7600480360381019080803573ffffffffffffffffffffffffffffffffffffffff16906020019092919050505061013c565b604051808215151515815260200191505060405180910390f35b61011a3361013c565b151561012557600080fd5b61012e81610159565b50565b61013a336101b3565b565b600061015282600061020d90919063ffffffff16565b9050919050565b61016d8160006102a190919063ffffffff16565b8073ffffffffffffffffffffffffffffffffffffffff167f94f245918d9ca15bc0b5ce0afc3e777e1da9606758ea2932638b7dca5e6582b760405160405180910390a250565b6101c781600061035190919063ffffffff16565b8073ffffffffffffffffffffffffffffffffffffffff167f08f4cf4ce47a81d6e3bdd7a8fb2d531d10bf6d941f7622a3fd3376ff191a6b6f60405160405180910390a250565b60008073ffffffffffffffffffffffffffffffffffffffff168273ffffffffffffffffffffffffffffffffffffffff161415151561024a57600080fd5b8260000160008373ffffffffffffffffffffffffffffffffffffffff1673ffffffffffffffffffffffffffffffffffffffff16815260200190815260200160002060009054906101000a900460ff16905092915050565b600073ffffffffffffffffffffffffffffffffffffffff168173ffffffffffffffffffffffffffffffffffffffff16141515156102dd57600080fd5b6102e7828261020d565b1515156102f357600080fd5b60018260000160008373ffffffffffffffffffffffffffffffffffffffff1673ffffffffffffffffffffffffffffffffffffffff16815260200190815260200160002060006101000a81548160ff0219169083151502179055505050565b600073ffffffffffffffffffffffffffffffffffffffff168173ffffffffffffffffffffffffffffffffffffffff161415151561038d57600080fd5b610397828261020d565b15156103a257600080fd5b60008260000160008373ffffffffffffffffffffffffffffffffffffffff1673ffffffffffffffffffffffffffffffffffffffff16815260200190815260200160002060006101000a81548160ff02191690831515021790555050505600a165627a7a7230582009cf929747d86e66b4efabe150b317656000586085de1fe4dce1a8538419fd890029",
  "source": "pragma solidity ^0.4.24;\r\n\r\n// Import the library 'Roles'\r\nimport \"./Roles.sol\";\r\n\r\n// Define a contract 'RoasterRole' to manage this role - add, remove, check\r\ncontract RoasterRole {\r\n  using Roles for Roles.Role;\r\n\r\n  // Define 2 events, one for Adding, and other for Removing\r\n  event RoasterAdded(address indexed account);\r\n  event RoasterRemoved(address indexed account);\r\n\r\n  // Define a struct 'roasters' by inheriting from 'Roles' library, struct Role\r\n  Roles.Role private roasters;\r\n\r\n  // In the constructor make the address that deploys this contract the 1st roaster\r\n  constructor() public {\r\n    _addRoaster(msg.sender);\r\n  }\r\n\r\n  // Define a modifier that checks to see if msg.sender has the appropriate role\r\n  modifier onlyRoaster() {\r\n    require(isRoaster(msg.sender));\r\n    _;\r\n  }\r\n\r\n  // Define a function 'isRoaster' to check this role\r\n  function isRoaster(address account) public view returns (bool) {\r\n    return roasters.has(account);\r\n  }\r\n\r\n  // Define a function 'addRoaster' that adds this role\r\n  function addRoaster(address account) public onlyRoaster {\r\n    _addRoaster(account);\r\n  }\r\n\r\n  // Define a function 'renounceRoaster' to renounce this role\r\n  function renounceRoaster() public {\r\n    _removeRoaster(msg.sender);\r\n  }\r\n\r\n  // Define an internal function '_addRoaster' to add this role, called by 'addRoaster'\r\n  function _addRoaster(address account) internal {\r\n    roasters.add(account);\r\n    emit RoasterAdded(account);\r\n  }\r\n\r\n  // Define an internal function '_removeRoaster' to remove this role, called by 'removeRoaster'\r\n  function _removeRoaster(address account) internal {\r\n    roasters.remove(account);\r\n    emit RoasterRemoved(account);\r\n  }\r\n}",
  "sourcePath": "C:\\Users\\dcblo\\Github\\blockchain_udacity\\blockchainArchitecture\\nd1309-Project-6b-Example-Template-master\\project-6\\contracts\\coffeeaccesscontrol\\RoasterRole.sol",
  "compiler": {
    "name": "solc",
    "version": "0.4.26+commit.4563c3fc.Emscripten.clang"
  },
  "schemaVersion": "2.0.3",
  "updatedAt": "2021-05-04T08:24:19.365Z"
}